:1000E000453A312E303031203230323030333239EF
:0F00F0005F435243204558414D504C455F5F00E0
:03000000020100FA
:1001000053890F43892074FA74F474F3F58DF58BD9
:10011000438780759852538833438840C299C29868
:100120003098FDE599C298B421F63098FDE599C262
:1001300098B443EC78313098FDE599C298F60830D0
:1001400098FDE599C298F6083098FDE599C298B4F3
:100150002CCE3098FDE599C298F6083098FDE599C7
:10016000C298F6083098FDE599C298B42CB2309840
:10017000FDE599C298F6083098FDE599C298F60811
:100180003098FDE599C298F6083098FDE599C29837
:10019000F6083098FDE599C298B40D8478311203C1
:1001A00005F530120305F522120305F520120305AB
:1001B000F521E53012024BE5301202227839E522B2
:1001C000120341E520120341E5211203417421127B
:1001D000021A744312021A783312020A1201F6123A
:1001E00001FC1201F612020A1201F61201FC740D52
:1001F00012021A020120742C12021A22C0F075F0A9
:100200000212020AD5F0FAD0F022C0F075F002E630
:100210000812021AD5F0F8D0F022F5993099FDC2F3
:100220009922C0F075F00813C0E04004A2088003D2
:10023000A208B35004B206B209E52013F520E52167
:1002400013F521D0E0D5F0DFD0F022C0E0C0F0C03F
:10025000E075F0086522138522E05002641813F55A
:1002600022D0E003C0E0D5F0EBD0E0D0F0D0E02227
:10027000C0E0120356120285F0A3D0E012035B1215
:100280000285F0A322C083C08290029293D082D0D4
:1002900083223031323334353637383941424344A2
:1002A0004546B43003740022B43103740122B432E1
:1002B00003740222B43303740322B434037404229B
:1002C000B43503740522B43603740622B4370374BC
:1002D0000722B43803740822B43903740922B441E4
:1002E00003740A22B44203740B22B44303740C2235
:1002F000B44403740D22B44503740E22B44603744F
:100300000F22740022C0F0E6081202A2C4F5F0E643
:10031000081202A225F0D0F022C0E0120356120209
:1003200085D0E012035B12028522C0E01203561250
:10033000028512021AD0E012035B12028512021A21
:1003400022C0E0120356120285F608D0E012035BC9
:0F035000120285F6082253E0F0C42253E00F2278
:00000001FF
